:020000040800F2
:1040000000500020ADAF0008794F00087B4F00083A
:104010007D4F00087F4F0008814F0008000000001E
:10402000000000000000000000000000834F0008B6
:10403000854F000800000000874F0008894F0008E6
:10404000F5AF0008F5AF0008F5AF0008F5AF0008C0
:10405000F5AF0008F5AF0008F5AF0008F5AF0008B0
:10406000F5AF0008F5AF0008F5AF0008F5AF0008A0
:10407000914F0008F5AF0008F5AF0008A14F000808
:10408000F5AF0008F5AF0008F5AF0008F5AF000880
:10409000B14F0008F5AF0008F5AF0008F5AF000814
:1040A000F5AF0008F5AF0008F5AF0008F5AF000860
:1040B000F5AF0008F5AF0008C14F0008F5AF0008E4
:1040C000F5AF0008F5AF0008F5AF0008D54F0008C0
:1040D000E54F0008F54F0008F5AF0008F5AF000800
:1040E000F5AF0008F5AF0008F5AF000800000000CC
:1040F00000000000000000000000000000000000C0
:0C41000000000000000000005FF808F163
:1041100010B5054C237833B9044B13B10448AFF301
:1041200000800123237010BDD8050020000000008E
:10413000C4B1000808B5034B1BB103490348AFF3F2
:10414000008008BD00000000DC050020C4B10008AC
:104150004FF0FF0C1CEAD0521EBF1CEAD15392EA6A
:104160000C0F93EA0C0F6FD01A4480EA010C400246
:1041700018BF5FEA41211ED04FF0006343EA5010A0
:1041800043EA5111A0FB01310CF00040B1F5000FE2
:104190003EBF490041EAD3715B0040EA010062F191
:1041A0007F02FD2A1DD8B3F1004F40EBC25008BF7B
:1041B00020F00100704790F0000F0CF0004C08BF99
:1041C00049024CEA502040EA51207F3AC2BFD2F166
:1041D000FF0340EAC250704740F400004FF0000374
:1041E000013A5DDC12F1190FDCBF00F000407047AE
:1041F000C2F10002410021FA02F1C2F1200200FAEC
:1042000002FC5FEA310040F1000053EA4C0308BFB2
:1042100020EADC70704792F0000F00F0004C02BF03
:10422000400010F4000F013AF9D040EA0C0093F07E
:10423000000F01F0004C02BF490011F4000F013BD8
:10424000F9D041EA0C018FE70CEAD15392EA0C0F46
:1042500018BF93EA0C0F0AD030F0004C18BF31F0B1
:10426000004CD8D180EA010000F00040704790F087
:10427000000F17BF90F0004F084691F0000F91F02B
:10428000004F14D092EA0C0F01D142020FD193EAF1
:104290000C0F03D14B0218BF084608D180EA010079
:1042A00000F0004040F0FE4040F40000704740F055
:1042B000FE4040F44000704781F0004102E000BF42
:1042C00083F0004330B54FEA41044FEA430594EAD6
:1042D000050F08BF90EA020F1FBF54EA000C55EA11
:1042E000020C7FEA645C7FEA655C00F0E2804FEAE2
:1042F0005454D4EB5555B8BF6D420CDD2C4480EAC4
:10430000020281EA030382EA000083EA010180EAF3
:10431000020281EA0303362D88BF30BD11F0004F41
:104320004FEA01314FF4801C4CEA113102D0404277
:1043300061EB410113F0004F4FEA03334CEA1333B2
:1043400002D0524263EB430394EA050F00F0A780CA
:10435000A4F10104D5F1200E0DDB02FA0EFC22FAC5
:1043600005F2801841F1000103FA0EF2801843FAB9
:1043700005F359410EE0A5F120050EF1200E012AAA
:1043800003FA0EFC28BF4CF0020C43FA05F3C018E8
:1043900051EBE37101F0004507D54FF0000EDCF161
:1043A000000C7EEB00006EEB0101B1F5801F1BD30A
:1043B000B1F5001F0CD349085FEA30004FEA3C0C0E
:1043C00004F101044FEA445212F5800F80F09A8004
:1043D000BCF1004F08BF5FEA500C50F1000041EB08
:1043E000045141EA050130BD5FEA4C0C404141EB0C
:1043F0000101013C28BFB1F5801FE9D291F0000F07
:1044000004BF01460020B1FA81F308BF2033A3F1B5
:104410000B03B3F120020CDA0C3208DD02F1140CAC
:10442000C2F10C0201FA0CF021FA02F10CE002F1E7
:104430001402D8BFC2F1200C01FA02F120FA0CFCE0
:10444000DCBF41EA0C019040E41AA2BF01EB045129
:10445000294330BD6FEA04041F3C1CDA0C340EDC27
:1044600004F11404C4F1200220FA04F001FA02F36A
:1044700040EA030021FA04F345EA030130BDC4F128
:104480000C04C4F1200220FA02F001FA04F340EA1D
:104490000300294630BD21FA04F0294630BD94F0CE
:1044A000000F83F4801306BF81F480110134013DB5
:1044B0004EE77FEA645C18BF7FEA655C29D094EA26
:1044C000050F08BF90EA020F05D054EA000C04BFA4
:1044D0001946104630BD91EA030F1EBF002100208F
:1044E00030BD5FEA545C05D14000494128BF41F02E
:1044F000004130BD14F580043CBF01F5801130BD92
:1045000001F0004545F0FE4141F470014FF000001C
:1045100030BD7FEA645C1ABF194610467FEA655CCD
:104520001CBF0B46024650EA013406BF52EA03356F
:1045300091EA030F41F4002130BD00BF90F0000F5D
:1045400004BF0021704730B54FF4806404F1320499
:104550004FF000054FF0000150E700BF90F0000F52
:1045600004BF0021704730B54FF4806404F1320479
:1045700010F0004548BF40424FF000013EE700BF49
:1045800042004FEAE2014FEA31014FEA02701FBFD9
:1045900012F07F4393F07F4F81F06051704732F00B
:1045A0007F4208BF704793F07F4F04BF41F4002162
:1045B000704730B54FF4607401F0004521F00041C0
:1045C0001CE700BF50EA010208BF704730B54FF04A
:1045D00000050AE050EA010208BF704730B511F04B
:1045E000004502D5404261EB41014FF4806404F183
:1045F00032045FEA915C3FF4D8AE4FF003025FEA09
:10460000DC0C18BF03325FEADC0C18BF033202EB8C
:10461000DC02C2F1200300FA03FC20FA02F001FAE6
:1046200003FE40EA0E0021FA02F11444BDE600BF89
:104630004FF0FF3C06E000BF4FF0010C02E000BF6E
:104640004FF0010C4DF804CD4FEA410C7FEA6C5C51
:104650004FEA430C18BF7FEA6C5C1BD001B050EAF4
:10466000410C0CBF52EA430C91EA030F02BF90EADF
:10467000020F0020704710F1000F91EA030F58BF9E
:10468000994208BF90422CBFD8176FEAE37040F000
:10469000010070474FEA410C7FEA6C5C02D150EA9E
:1046A000013C07D14FEA430C7FEA6C5CD6D152EA59
:1046B000033CD3D05DF8040B704700BF844610461E
:1046C00062468C461946634600E000BF01B5FFF71D
:1046D000B7FF002848BF10F1000F01BD4DF808EDED
:1046E000FFF7F4FF0CBF012000205DF808FB00BFBE
:1046F0004DF808EDFFF7EAFF34BF012000205DF818
:1047000008FB00BF4DF808EDFFF7E0FF94BF012064
:1047100000205DF808FB00BF4DF808EDFFF7CEFF65
:1047200094BF012000205DF808FB00BF4DF808EDA4
:10473000FFF7C4FF34BF012000205DF808FB00BF75
:1047400080F0004002E000BF81F0004142001FBF46
:104750005FEA410392EA030F7FEA226C7FEA236C4F
:104760006AD04FEA1262D2EB1363C1BFD218414044
:1047700048404140B8BF5B42192B88BF704710F0DA
:10478000004F40F4000020F07F4018BF404211F07D
:10479000004F41F4000121F07F4118BF494292EAE5
:1047A000030F3FD0A2F1010241FA03FC10EB0C0011
:1047B000C3F1200301FA03F100F0004302D549429E
:1047C00060EB4000B0F5000F13D3B0F1807F06D34B
:1047D00040084FEA310102F10102FE2A51D2B1F143
:1047E000004F40EBC25008BF20F0010040EA030038
:1047F0007047490040EB0000013A28BFB0F5000FB8
:10480000EDD2B0FA80FCACF1080CB2EB0C0200FA6D
:104810000CF0AABF00EBC25052421843BCBFD040BC
:104820001843704792F0000F81F4000106BF80F436
:1048300000000132013BB5E74FEA41037FEA226CF9
:1048400018BF7FEA236C21D092EA030F04D092F0C4
:10485000000F08BF0846704790EA010F1CBF0020F8
:10486000704712F07F4F04D1400028BF40F0004055
:10487000704712F100723CBF00F50000704700F075
:10488000004343F0FE4040F4000070477FEA22629C
:1048900016BF08467FEA23630146420206BF5FEA6D
:1048A000412390EA010F40F4800070474FF000036D
:1048B00004E000BF10F0004348BF40425FEA000C34
:1048C00008BF704743F0964301464FF000001CE0DC
:1048D00050EA010208BF70474FF000030AE000BF32
:1048E00050EA010208BF704711F0004302D5404270
:1048F00061EB41015FEA010C02BF844601460020E2
:1049000043F0B64308BFA3F18053A3F50003BCFAFC
:104910008CF2083AA3EBC25310DB01FA02FC6344A9
:1049200000FA02FCC2F12002BCF1004F20FA02F2B0
:1049300043EB020008BF20F00100704702F12002A3
:1049400001FA02FCC2F1200250EA4C0021FA02F204
:1049500043EB020008BF20EADC7070474FF0FF3CD9
:1049600006E000BF4FF0010C02E000BF4FF0010C69
:104970004DF804CD4FEA40024FEA41037FEA226C32
:1049800018BF7FEA236C11D001B052EA530C18BF54
:1049900090EA010F58BFB2EB030088BFC81738BFB9
:1049A0006FEAE17018BF40F0010070477FEA226CA7
:1049B00002D15FEA402C05D17FEA236CE4D15FEAA3
:1049C000412CE1D05DF8040B704700BF84460846D7
:1049D0006146FFE70FB5FFF7C9FF002848BF10F198
:1049E000000F0FBD4DF808EDFFF7F4FF0CBF0120DD
:1049F00000205DF808FB00BF4DF808EDFFF7EAFF67
:104A000034BF012000205DF808FB00BF4DF808ED21
:104A1000FFF7E0FF94BF012000205DF808FB00BF16
:104A20004DF808EDFFF7D2FF94BF012000205DF89C
:104A300008FB00BF4DF808EDFFF7C8FF34BF0120A9
:104A400000205DF808FB00BF42000ED2B2F1FE4F1D
:104A50000BD34FF09E03B3EB126209D44FEA00234D
:104A600043F0004323FA02F070474FF00000704714
:104A700012F1610F01D1420202D14FF0FF307047B5
:104A80004FF00000704700BF844641EA000313F076
:104A9000030349D1403A23D30B6803604B6843605A
:104AA0008B688360CB68C3600B6903614B694361AA
:104AB0008B698361CB69C3610B6A03624B6A436292
:104AC0008B6A8362CB6AC3620B6B03634B6B43637A
:104AD0008B6B8363CB6BC36340304031403ADBD296
:104AE00030320BD30B6803604B6843608B68836084
:104AF000CB68C36010301031103AF3D20C3205D3BA
:104B000051F8043B40F8043B043AF9D2043208D08F
:104B1000D2071CBF11F8013B00F8013B01D30B8801
:104B200003806046704700BF082A13D38B07B1D0BB
:104B300010F00303AED0C3F10403D21ADB071CBF8D
:104B400011F8013B00F8013BA4D331F8023B20F8F7
:104B5000023B9FE7043AD9D3013A11F8013B00F830
:104B6000013BF9D20B7803704B7843708B788370DC
:104B70006046704700B583B00E4B5A6942F001029F
:104B80005A615B6903F001030193019B0022032139
:104B90000C2000F08BFB0C2000F0C0FB0022032156
:104BA0000F2000F083FB0F2000F0B8FB03B05DF88E
:104BB00004FB00BF001002402DE9F04188B0002541
:104BC0000495059506950795324CA36943F020039B
:104BD000A361A36903F020030093009BA36943F042
:104BE0000403A361A36903F004030193019BA36978
:104BF00043F00803A361A36903F008030293029B37
:104C0000254F2A461821384600F0B6FF01260496A3
:104C10000595069504A9384600F09CFE18230493D8
:104C2000059606954FF00208CDF81C8004A9384679
:104C300000F090FEA36943F00403A361A36903F0AD
:104C400004030393039BA4F584342A464FF4805154
:104C5000204600F091FF4FF4805704970596CDF859
:104C60001880CDF81C8004A9204600F073FE2A4667
:104C70003946204600F080FF412000F0F1FA32462C
:104C80003946204600F078FF412000F0E9FA08B0EC
:104C9000BDE8F08100100240000C014072B6FEE752
:104CA00000B595B0282200210DEB020006F0C8F9EE
:104CB00000230593069307930893099301930293A6
:104CC0000393049301220A924FF480330B930E92C4
:104CD0000222119212934FF4E01313930AA801F0E9
:104CE0008FFFC0B90F23059302210691002307937C
:104CF0004FF480620892099305A802F0C1F960B9E7
:104D0000102301930023049301A802F095FA30B90F
:104D100015B05DF804FBFFF7C1FFFFF7BFFFFFF71A
:104D2000BDFF08B501F0F2FE00F076FAFFF7B8FF1C
:104D3000FFF742FFFFF71EFF00F00EF800F06AF9E0
:104D400000F0C0F905F01AFA00F02AF800F020FA95
:104D500005F0DEFFFEE7000008B50F480F4B0360CB
:104D60004FF4827343604FF4806383600023C36019
:104D70000222026143614FF4007282611822C26113
:104D80000362436283620A23C36202F05DFB00B9DF
:104D900008BDFFF783FFFBE77C06002000300140E1
:104DA00008B50E480E4B03604FF482734360002336
:104DB0008360C3600361012242614FF4007282612B
:104DC0000822C2610362436283620A23C36202F063
:104DD0003BFB00B908BDFFF761FFFBE7D4060020ED
:104DE0000038004070B588B0044600230493059352
:104DF000069307930368464A934204D0454A934278
:104E000047D008B070BD444B9A6942F480529A6111
:104E10009A6902F480520092009A9A6942F0040260
:104E20009A619B6903F004030193019B202304937F
:104E30000223059303230793384E04A9304600F05C
:104E400089FD4023049300250595069504A9304665
:104E500000F080FD3248334B03604560856080235D
:104E6000C3600561456185614FF48053C36100F003
:104E70008DFA58B92A4BE3645C6200220321232097
:104E800000F014FA232000F049FABAE7FFF706FF12
:104E9000F0E7214BDA6942F48042DA61DA6902F420
:104EA00080420292029A9A6942F008029A619B69D2
:104EB00003F008030393039B4FF42043049302235E
:104EC00005930323079304A9174800F043FD1748EF
:104ED000174B036010234360002383608022C2606D
:104EE0000361436183614FF48053C36100F04EFA64
:104EF00058B90E4BA3645C6200220321242000F009
:104F0000D5F9242000F00AFA7BE7FFF7C7FEF0E7A7
:104F1000003001400038004000100240000801400D
:104F2000F40500201C000240000C0140380600205F
:104F30005800024082B00E4B9A6942F001029A6119
:104F40009A6902F001020092009ADA6942F08052F6
:104F5000DA61DB6903F080530193019B054A5368D2
:104F600023F0E06343F00073536002B0704700BF6A
:104F70000010024000000140FEE7FEE7FEE7FEE70A
:104F8000FEE770477047704708B500F057F908BD55
:104F900008B5024800F0D8FA08BD00BFF4050020AB
:104FA00008B5024800F0D0FA08BD00BF380600205E
:104FB00008B5024801F059FB08BD00BFD810002019
:104FC00008B505F091FF024802F04DFC08BD00BF96
:104FD0002C07002008B5024802F052FB08BD00BFB4
:104FE0007C06002008B5024802F04AFB08BD00BF5D
:104FF000D406002008B5024802F050FF08BD00BFEB
:10500000A8070020014B024A9A60704700ED00E0BB
:105010000040000800B587B0002302930393049377
:105020000593009301931548154A02604722426098
:10503000836040F2E732C2600361836102F00AFDDF
:1050400090B94FF48053029302A90C4802F03AFD44
:1050500068B90023009301936946084802F0A0FD57
:1050600040B907B05DF804FBFFF718FEE9E7FFF76A
:1050700015FEEEE7FFF712FEF3E700BF2C07002056
:105080000008004002680E4B9A4200D0704700B5FD
:1050900083B003F50233DA6942F00402DA61DB69B6
:1050A00003F004030193019B002211461E2000F02F
:1050B000FDF81E2000F032F903B05DF804FB00BFDC
:1050C0000008004008B50D480D4B03604FF4E13374
:1050D000436000238360C36003610C2242618361EB
:1050E000C36102F029FE28B932220649034802F0C2
:1050F000F2FF08BDFFF7D2FDF6E700BFA8070020CA
:10510000003801407407002030B587B000230293B7
:1051100003930493059302681B4B9A4201D007B096
:1051200030BD03F558439A6942F480429A619A6906
:1051300002F480420092009A9A6942F004029A6155
:105140009B6903F004030193019B4FF400730293E6
:1051500002230393032305930C4D02A9284600F074
:10516000F9FB4FF48063029300240394049402A992
:10517000284600F0EFFB22462146252000F096F855
:10518000252000F0CBF8CAE70038014000080140B4
:1051900008B532220249034802F09DFF08BD00BF56
:1051A00074070020A807002008B50268044B9A4243
:1051B00000D008BD32220349034802F08CFFF8E713
:1051C0000038014074070020A807002010B50446ED
:1051D0000E4B18784FF47A73B3FBF0F30C4A106857
:1051E000B0FBF3F000F0A8F868B90F2C01D901204A
:1051F0000AE0002221464FF0FF3000F057F8054B3F
:105200001C60002000E0012010BD00BF0400002051
:10521000000000200800002008B5074A136843F08A
:1052200010031360032000F02FF80020FFF7CEFFDB
:10523000FFF780FE002008BD00200240034A1168ED
:10524000034B1B780B441360704700BFEC07002032
:1052500004000020014B1868704700BFEC070020D5
:1052600038B50446FFF7F6FF0546B4F1FF3F02D01C
:10527000044B1B781C44FFF7EDFF401BA042FAD300
:1052800038BD00BF04000020074AD36823F4E06360
:105290001B041B0C000200F4E060034343F0BF63F7
:1052A00043F40033D360704700ED00E000B5194BC4
:1052B000DB68C3F30223C3F1070CBCF1040F28BF62
:1052C0004FF0040C03F1040EBEF1060F18D9033B96
:1052D0004FF0FF3E0EFA0CFC21EA0C0199400EFA49
:1052E00003F322EA0303194300280BDB0901C9B2C7
:1052F00000F1604000F5614080F800135DF804FBA8
:105300000023E5E700F00F000901C9B2024B195470
:10531000F4E700BF00ED00E014ED00E0002807DB3B
:1053200000F01F02400901239340024A42F8203056
:10533000704700BF00E100E00138B0F1807F0BD280
:105340004FF0E0235861054AF02182F82310002035
:10535000986107221A6170470120704700ED00E054
:1053600030B40124056CAC40C56B6C6004686360AC
:105370004368102B05D0036899600368DA6030BC7D
:10538000704703689A600368D960F8E760B310B4A7
:1053900002460168154B0B441548A0FB03031B098B
:1053A0009B001364134BD363022382F821300868F7
:1053B00020F47F5020F03000536894682343D46871
:1053C0002343146923435469234394692343D469D1
:1053D000234303430B6000209063012382F82130B4
:1053E00082F8200010BC704701207047F8FFFDBF15
:1053F000CDCCCCCC0000024038B5044690F820005B
:10540000012831D0012084F8200094F821000128DF
:1054100004D0002384F82030022038BD022084F814
:1054200021000020A0632568286820F00100286082
:105430002046FFF795FFE36A5BB12268136843F0EB
:105440000E0313602268136843F001031360002009
:10545000E3E72268136823F00403136022681368EB
:1054600043F00A031360EDE70220D6E790F82130FD
:10547000022B06D004238363002380F82030012010
:1054800070470268136823F00E0313600268136804
:1054900023F001031360036CC16B012202FA03F3D2
:1054A0004B6080F82120002380F820301846704798
:1054B00008B590F82130022B03D004238363012028
:1054C00008BD0268136823F00E03136002681368B6
:1054D00023F0010313600368194A934214D0143275
:1054E00093421FD0143293421ED0143293421ED0E6
:1054F000143293421ED01432934202D04FF0807285
:1055000003E04FF4801200E001220E4B5A600123A9
:1055100080F82130002380F82030436B6BB198472E
:105520000020CDE71022F0E74FF48072EDE74FF452
:105530008052EAE74FF48032E7E70020C0E700BF7F
:10554000080002400000024038B5C36B1A680468C6
:105550002568016C04238B40134235D015F0040FED
:1055600032D0236813F0200F03D1236823F0040303
:1055700023600368434A934214D01432934218D0F4
:105580001432934217D01432934217D014329342FC
:1055900017D01432934202D04FF0806203E04FF4F0
:1055A000800200E00422384B5A60C36A03B1984776
:1055B00038BD4022F7E74FF48062F4E74FF48042B1
:1055C000F1E74FF48022EEE702238B4013423CD0F8
:1055D00015F0020F39D0236813F0200F06D123688D
:1055E00023F00A032360012380F821300368254A51
:1055F000934214D0143293421CD0143293421BD0E5
:10560000143293421BD0143293421BD01432934273
:1056100002D04FF0007203E04FF4001200E00222CB
:10562000194B5A60002380F82030836A002BBFD0CA
:105630009847BDE72022F3E74FF40072F0E74FF4FC
:105640000052EDE74FF40032EAE7082303FA01F1D4
:105650001142ADD015F0080FAAD0236823F00E0335
:105660002360026CC16B012303FA02F24A60836378
:1056700080F82130002380F82030036B002B97D076
:10568000984795E70800024000000240044B0022C2
:10569000DA61044A136943F0010313610180704722
:1056A000F007002000200240194BDB6813F01003C4
:1056B00005D0184AD36943F00203D3611023144A7A
:1056C000D26812F0040F06D01249CA6942F00102F2
:1056D000CA6143F004030E4AD26912F0010F09D0E7
:1056E0000C49CA6942F00402CA610949CA6922F038
:1056F0000102CA6140F20112934202D0044AD3600F
:105700007047034AD36923F00103D361704700BF98
:1057100000200240F00700200A4B1B6913F0800FA5
:105720000BD0084B084A5A6002F188325A601B6954
:1057300013F0800F03D10020704700207047012034
:10574000704700BF0020024023016745034A1369E8
:1057500043F0800313610020704700BF0020024027
:1057600038B50446FFF776FD0546164BDB6813F0A7
:10577000010F0AD0B4F1FF3FF7D024B1FFF76AFD63
:10578000401BA042F1D903201BE00E4BDB6813F055
:10579000200F02D00B4B2022DA600A4BDB6813F09B
:1057A000100F0BD1074BDB6913F0010F06D1054B2E
:1057B000DB6813F0040F01D1002002E0FFF774FF53
:1057C000012038BD002002402DE9F8431E46244B3D
:1057D0001B7E012B41D004460F469046204B0122F0
:1057E0001A764CF25030FFF7BBFF034678BB012C12
:1057F00008D0022C03D04FF004091C4607E04FF0FC
:105800000209FAE74FF00109F7E70134E4B24C4529
:105810001DD22101C1F12002A1F1200328FA01F1DA
:1058200006FA02F2114326FA03F3194389B207EB91
:105830004400FFF72BFF4CF25030FFF791FF094B6C
:105840001D6925F001051D6103460028DDD0044ACD
:10585000002111761846BDE8F8830223FAE700BF5D
:10586000F007002000200240064B0022DA61064BC0
:105870001A6942F004021A611A6942F040021A6180
:10588000704700BFF007002000200240064B0022B6
:10589000DA61064B1A6942F002021A6158611A690C
:1058A00042F040021A617047F007002000200240D9
:1058B000264B1B7E012B46D070B505460E46234B6A
:1058C00001221A760368022B20D04CF25030FFF7E9
:1058D00047FF90BB4FF0FF333360AC680121EA68AB
:1058E000AB6803EB8223A34228D92046FFF7CEFF03
:1058F0004CF25030FFF734FF154A136923F00203CE
:1059000013610146B8B904F58064E8E74CF2503001
:10591000FFF726FF08B1012110E00120FFF7A4FFE7
:105920004CF25030FFF71CFF0146094A136923F07F
:105930000403136102E0346000E00121034B002204
:105940001A76084670BD022108467047F00700200D
:105950000020024070B582B00024A446A6E0804D2D
:10596000AA4210D007D97F4DAA420CD005F5803548
:10597000AA4208D013E0A5F58015AA4203D005F588
:105980007025AA4207D18A68002A58D0012A51D02E
:105990004361082403E0A5F58015AA42F3D0BEF1C7
:1059A000FF0F4ED80646BEF1FF0F4CD84FEA8C02CF
:1059B00033680F25954023EA050304FA02F21343E6
:1059C00033604B6813F0805F6ED0674B9A6942F08A
:1059D00001029A619B6903F001030193019B4FEA65
:1059E0009C02951C614B53F825600CF003039D004D
:1059F0000F23AB4026EA03065D4B984229D003F5FE
:105A00008063984200F08E8003F58063984200F036
:105A10008B8003F58063984219D004231AE0CC6888
:105A2000BDE7CC680434BAE7CC680834B7E7CC6883
:105A30000C34B4E703610824B1E70024AFE7042481
:105A4000ADE7061DAFE7ACF108029200B0E7032313
:105A500000E00023AB4033430232444D45F822308E
:105A60004B6813F4803F61D0424A136843EA0E0347
:105A700013604B6813F4003F5ED03E4A536843EA1C
:105A80000E0353604B6813F4801F5BD0394A936850
:105A900043EA0E0393604B6813F4001F58D0354A55
:105AA000D36843EA0E03D3600CF1010C0A6832FAA2
:105AB0000CF353D0012303FA0CF302EA030E33EA8A
:105AC0000202F1D14A68122A3FF649AF122A3FF684
:105AD00066AF01A555F822F0875900081F5A000843
:105AE000295A00083B5A00089F5900089F5900088E
:105AF0009F5900089F5900089F5900089F590008A6
:105B00009F5900089F5900089F5900089F59000895
:105B10009F5900089F5900089F590008235A000800
:105B20002F5A0008012395E7022393E7114A1368CF
:105B300023EA0E0313609CE70E4A536823EA0E0320
:105B400053609FE70B4A936823EA0E039360A2E732
:105B5000084AD36823EA0E03D360A5E702B070BDFC
:105B6000000022100000311000100240000001402F
:105B700000080140000401400AB1016170470904B6
:105B80000161704738B512F4804F44D00468B4F80E
:105B900050309BB291F800C003EBCC03023304EB0E
:105BA0004303B3F80044C4F309048B69A34228D328
:105BB0001B1B8B618B697BB9056835F82C309BB258
:105BC00023F4804323F0700383F4005343F4004331
:105BD00043F0800325F82C3012F0400F0ED00268FD
:105BE0000D7832F825309BB223F4E04323F07003A4
:105BF00043F4004343F0C00322F8253024B9204683
:105C000038BD00238B61D5E723460A8949690068BE
:105C100003F058FAF3E70468B4F850309BB291F8F7
:105C200000C003EBCC03063304EB4303B3F800449A
:105C3000C4F309048B69A3422FD31B1B8B618B69AF
:105C40007BB9056835F82C309BB223F4804323F0F0
:105C5000700383F4005343F4004343F0800325F8BA
:105C60002C3012F0400F0FD1026891F800C032F8CA
:105C70002C309BB223F4E04323F0700343F4004341
:105C800043F0C00322F82C30002CB8D023464A89B8
:105C90004969006803F016FAB1E700238B61CEE78B
:105CA00070B586B0002800F08580044690F8A932CF
:105CB000EBB1032384F8A932206802F04CFA2546A0
:105CC00055F8106BEC460FCDACE80F002B68CCF804
:105CD0000030231D0ECB304602F02DFA054658B198
:105CE000022384F8A9320125284606B070BD80F849
:105CF000A83204F017FBDCE70021206802F035FA37
:105D00002B461AE05A1C02EB820104EBC101012070
:105D1000487002EB820104F8313003EB830104EB9D
:105D2000C101CB8602EB820C04EBCC0C00208CF87A
:105D300003008863C8630864D3B261688B42E1D30F
:105D400016E005EB850304EBC303002283F8692109
:105D500083F8685183F86B21C3F87821C3F87C215C
:105D600005EB850304EBC303C3F880210135EDB2D5
:105D7000A942E6D8254655F8106BEC460FCDACE8A5
:105D80000F002B68CCF80030231D0ECB304602F0FC
:105D9000EEF9054620B1022384F8A9320125A3E7D4
:105DA000002384F82430012384F8A932206802F00B
:105DB00014FD99E7012597E738B590F8A832012B33
:105DC00011D00446012580F8A852006802F0BAF903
:105DD0002946204604F0ADFB206802F0FCFC0020C0
:105DE00084F8A80238BD0220FCE770B505460C46D1
:105DF000164612F0400F00F00D810268B2F85030E4
:105E00009BB2097803EBC103023302EB4303B3F8FF
:105E10000024C2F30902A369934252D99B1AA361D9
:105E2000A369002B6AD16378002B4DD12B68B3F89E
:105E3000502092B2134403EB0111B1F804349BB229
:105E400023F4F8439BB2A1F80434B1F804346FEAA8
:105E500043436FEA53439BB2A1F804342B68627842
:105E6000002A3ED1B3F8502092B21344227803EBBB
:105E70000213B3F80C2492B222F4F84292B2A3F8BF
:105E80000C24B3F80C246FEA42426FEA524292B2F9
:105E9000A3F80C242178284604F078FA16F4804FF1
:105EA00041D02A68217832F821309BB223F4E043B4
:105EB00023F0700343F4404343F0800322F8213081
:105EC00031E00023A361ABE7012BC7D12B68B3F806
:105ED000502092B2134403EB01110023A1F80434C3
:105EE000BCE7012AD6D1B3F8502092B213442278ED
:105EF00003EB02130022A3F80C24CBE716F4804F27
:105F00000DD0286830F821309BB223F4E04323F011
:105F1000700343F4404343F0800320F8213094F8A9
:105F20002430012B12D02A68217832F821309BB21C
:105F300023F4E04323F0400383F0300343F40043B1
:105F400043F0800322F82130002070BD63691344C0
:105F50006361E3691344E361216A236999421FD3B2
:105F6000C91A21626278002A3FD12A68B2F850101B
:105F700089B20A44217802EB0112EBB9B2F8041499
:105F800089B221F4F84189B2A2F80414B2F80414D9
:105F90006FEA41416FEA514189B2A2F8041426E048
:105FA00021B9002384F824301346DBE7002384F86A
:105FB000243023620B46D5E73E2B09D8590813F04D
:105FC000010F00D00131890289B2A2F804140EE059
:105FD000590913F01F0F00D101396FEAC1616FEA4F
:105FE000514189B2A2F8041401E0012A06D09BB203
:105FF00022896169286802F0F8FB94E72A68B2F800
:10600000501089B20A44217802EB011299B2A2F829
:106010000414ECE70268B2F850309BB2097803EB45
:10602000C103063302EB4303B3F80024C2F30902B1
:10603000A369934253D39B1AA361A369002B6BD12D
:106040006378002B4ED12B68B3F8502092B21344E2
:1060500003EB0111B1F804349BB223F4F8439BB273
:10606000A1F80434B1F804346FEA43436FEA5343B0
:106070009BB2A1F804342B686278002A3FD1B3F8B0
:10608000502092B21344227803EB0213B3F80C248D
:1060900092B222F4F84292B2A3F80C24B3F80C2482
:1060A0006FEA42426FEA524292B2A3F80C2421787E
:1060B000284604F06BF916F4804F7FF434AF2A6859
:1060C000217832F821309BB223F4E04323F07003AF
:1060D00043F4404343F0800322F8213023E70023B8
:1060E000A361AAE7012BC6D12B68B3F8502092B266
:1060F000134403EB01110023A1F80434BBE7012A88
:10610000D5D1B3F8502092B21344227803EB021396
:106110000022A3F80C24CAE716F4804F0DD128689A
:1061200030F821309BB223F4E04323F0700343F4B2
:10613000404343F0800320F8213094F82430012BB1
:106140007FF4F1AE636913446361E3691344E3616F
:10615000216A236999421FD3C91A21622A6861788A
:1061600000293ED1B2F8501089B20A44217802EBDE
:106170000112EBB9B2F80C1489B221F4F84189B2DA
:10618000A2F80C14B2F80C146FEA41416FEA5141C5
:1061900089B2A2F80C1426E021B9002384F8243037
:1061A0001346DBE70023236284F824300B46D5E74F
:1061B0003E2B09D8590813F0010F00D00131890294
:1061C00089B2A2F80C140EE0590913F01F0F00D188
:1061D00001396FEAC1616FEA514189B2A2F80C142A
:1061E00001E0012906D09BB262896169286802F04A
:1061F000FCFA98E6B2F8501089B20A44217802EB12
:10620000011299B2A2F80C14EDE72DE9F041054610
:106210002868B0F8443013F4004F00F00F82B0F853
:106220004440A3B214F00F0440F0D88013F0100FD4
:1062300061D003889AB213F4006F40F0938012F497
:10624000004FE5D0038823F070031B051B0D43F0BE
:10625000800303802868B0F850309BB295F868211D
:1062600003EBC203063300EB4303B3F80034C3F37C
:106270000903C5F884318BB1D5F87C1171B1B5F83B
:106280006E2102F01FFFD5F88421D5F87C3113442C
:10629000C5F87C310021284604F06CF82B681A8878
:1062A00012F4006FB4D1B3F8502092B21344D5F871
:1062B0007821002A79D1B3F80C2492B222F4F84262
:1062C00092B2A3F80C24B3F80C246FEA42426FEAAE
:1062D000524292B2A3F80C242A6813889BB223F48A
:1062E000804323F0700383F4405343F4004343F0AE
:1062F000800313808CE703889BB223F4E14323F0EF
:1063000070036FEA43436FEA53439BB203802A68EA
:10631000B2F850309BB295F8281003EBC10302335A
:1063200002EB4303B3F80034C3F309036B64EA6B75
:106330001344EB630021284604F028F895F8243034
:10634000002B3FF465AF2B6C002B7FF461AF95F809
:1063500024302A6843F08003A2F84C30002385F8EB
:10636000243055E7B0F850309BB295F8682103EB24
:10637000C203063300EB4303B3F80034C3F309034D
:10638000C5F88431B5F86E2105F52C7102F09AFE3E
:106390002A68138823F070031B051B0D43F080034C
:1063A0001380284603F0DEFF32E73E2A09D8510861
:1063B00012F0010F00D001318A0292B2A3F80C242E
:1063C0008AE7510912F01F0F00D101396FEAC1624B
:1063D0006FEA524292B2A3F80C247DE730F82430E1
:1063E0009EB213F4004F4FD116F0800F3FF410AF60
:1063F000621C02EB820105EBC101286830F82430F1
:106400009BB223F4E14323F070036FEA43436FEA46
:1064100053439BB220F82430CB78032B07D033B101
:10642000022B40F0068116F4807F40F0028128683C
:10643000B0F850309BB2621C02EB820215F8326059
:1064400003EBC603023300EB4303B3F80034C3F39A
:10645000090304EB840205EBC202126C9A4240F27B
:10646000D48004EB840705EBC707D21A3A6404EB27
:10647000840205EBC202126C002A40F0CD80314646
:10648000284603F083FFC3E630F8243023F070037E
:106490001B051B0D43F0800320F8243004EB84011E
:1064A000C90001F5B47105EB010804EB840305EBA9
:1064B000C30393F87431002B42D12868B0F85030F0
:1064C0009BB204EB840205EBC20292F8682103EB55
:1064D000C203063300EB4303B3F80074C7F30907A4
:1064E00017BB04EB840305EBC303D3F884213A44C0
:1064F000C3F88421D3F87C213A44C3F87C21D3F833
:1065000080313BB104EB840305EBC303D3F878314E
:106510009F4275D204EB840305EBC30393F8681123
:10652000284603F027FF5FE704EB840105EBC10178
:106530003B46B1F86E21D1F87C1102F0C3FDD0E7E3
:1065400004EB840305EBC30393F86B31022B35D0C6
:10655000296804EB840205EBC20292F8680131F865
:1065600020309BB223F4E04323F0700343F4004354
:1065700043F0C00321F82030286892F8682130F8F1
:10658000223013F4804F20D0B0F850309BB203EB90
:10659000C203023300EB4303B3F80074C7F30907E7
:1065A000002F9ED004EB840105EBC1013B46B1F8FE
:1065B0007021D1F87C1102F085FD92E73246414608
:1065C0002846FFF7DFFA07468BE7B0F850309BB25A
:1065D00003EBC203063300EB4303B3F80074C7F3C5
:1065E0000907002F3FF47DAF04EB840105EBC101E7
:1065F0003B46B1F87221D1F87C1102F063FD70E7DF
:106600004146286802F005F9EEE604EB840205EB4A
:10661000C202002717642AE704EB840205EBC202DA
:10662000D66B1E44D663546C2344536402F0F1F8D5
:10663000EEE532462846FFF7D8FBE9E50020BDE845
:10664000F08190F8A832012B0DD010B5044601233B
:1066500080F8A83280F82410006802F0B6F8002014
:1066600084F8A80210BD0220704710B584B004461B
:10667000006802F0B4F810F4004F47D1206802F02F
:10668000AEF810F4806F45D1206802F0A8F810F43D
:10669000804F08D02268B2F844309BB223F4804384
:1066A0009BB2A2F84430206802F099F810F4005F21
:1066B00008D02268B2F844309BB223F400539BB256
:1066C000A2F84430206802F08AF810F4805F32D1DA
:1066D000206802F084F810F4006F78D1206802F08E
:1066E0007EF810F4007F40F09D80206802F077F87B
:1066F00010F4807F08D02268B2F844309BB223F4B3
:1067000080739BB2A2F8443004B010BD2046FFF75E
:106710007CFDB3E72268B2F844309BB223F4806377
:106720009BB2A2F84430204603F041FE00212046EF
:10673000FFF787FFA8E72268B2F840309BB223F04A
:1067400004039BB2A2F840302268B2F840309BB2FA
:1067500023F008039BB2A2F84030204603F04AFE23
:106760002268B2F844309BB223F480539BB2A2F863
:106770004430ADE7226832F8231004AA02EB43024A
:1067800022F8101C0133DBB2072BF3D92268B2F8D0
:1067900040309BB243F00103A2F840302268B2F8C7
:1067A00040309BB223F001039BB2A2F84030236833
:1067B000B3F8442012F4806FF9D0B3F8442092B2B9
:1067C00022F4806292B2A3F8442000230BE000235D
:1067D000DAE7226804A901EB430131F8101C22F822
:1067E00023100133DBB2072BF3D92268B2F8403013
:1067F0009BB243F00803A2F840302268B2F844305C
:106800009BB223F400639BB2A2F844302268B2F832
:1068100040309BB243F00403A2F84030204603F01E
:10682000D9FD5BE72268B2F844309BB223F40073D1
:106830009BB2A2F84430204603F0B3FD55E710B5F3
:1068400004468C4611F0800F2AD101F0070000EBBE
:106850008001C90001F5B47E04EB0E0100EB80005D
:1068600004EBC0004FF0000E80F869E10CF0070C5B
:1068700081F800C00A61CB704A780AB1A1F80EC055
:10688000022B19D094F8A832012B18D0012384F8D8
:10689000A832206801F07CFC002084F8A80210BD1A
:1068A00001F00700013000EB800104EBC1014FF063
:1068B000010E81F801E0D9E700230B71E2E7022025
:1068C000EDE710B504460B4611F0800F1FD101F023
:1068D000070202EB8201C90001F5B471014402EB29
:1068E000820200EBC202002082F8690103F0070374
:1068F0000B7094F8A832012B13D0012384F8A8322E
:10690000206801F001FE002084F8A80210BD01F00B
:106910000702013202EB820100EBC1010120487045
:10692000E4E70220F2E710B501F0070404EB84016C
:10693000C90001F5B471014404EB840C00EBCC0CEC
:10694000CCF87C21CCF880310023CCF884318CF851
:1069500069318CF8684124B9006801F05AFF0020C1
:1069600010BD006801F055FFF9E710B501F007040C
:1069700004F1010C0CEB8C0100EBC10104EB840E63
:1069800000EBCE0ECEF83C20CEF8403001228EF83F
:106990004C20CEF848300023CEF844304A700CEB3F
:1069A0008C0C00F83C4024B9006801F032FF002054
:1069B00010BD006801F02DFFF9E738B501F00705BB
:1069C0004268954231D804460B4611F0800F1ED123
:1069D00001EB8101C90001F5B471014403EB8303AC
:1069E00000EBC303002283F8692101238B700D7033
:1069F00094F8A832012B1AD0012384F8A832206819
:106A000001F06DFE5DB1002084F8A80238BD6B1C5A
:106A100003EB830100EBC10101224A70E5E704F5B5
:106A20002C71206801F0DFFEEDE70120EEE7022087
:106A3000ECE70B4601F00F014268914230D810B5E7
:106A4000044613F0800F21D103F0070202EB82010C
:106A5000C90001F5B471014402EB820200EBC202ED
:106A6000002082F8690100228A7003F007030B708E
:106A700094F8A832012B15D0012384F8A83220689D
:106A800001F052FE002084F8A80210BD03F00702B6
:106A9000013202EB820100EBC10101204870E2E704
:106AA000012070470220F0E711F0800F0BD001F0B9
:106AB0000701013101EB810100EBC10152B90A73F9
:106AC000CB800020704701EB8101C90001F5B47152
:106AD0000144F3E701220A730B811B0C4B81F0E7A1
:106AE00082B0084B1B68084AA2FB03235B0A00FB29
:106AF00003F3019300BF019B5A1E0192002BF9D1B1
:106B000002B0704700000020D34D621070B5FEF750
:106B1000A1FB0446364A136843F001031360344B6B
:106B20001B6813F0020F07D1FEF794FB001B02282D
:106B3000F5D90324204670BD2D4D2B6823F0F803B2
:106B400043F080032B60FEF785FB044600236B6057
:106B5000274B5B6813F00C0F08D0FEF77BFB001B84
:106B600041F288339842F3D90324E3E7214B224AC8
:106B70001A60224B1868FEF729FB044608B101246D
:106B8000D8E7FEF767FB0546194A136823F08073C0
:106B90001360174B1B6813F0007F06D0FEF75AFBFB
:106BA000401B0228F5D90324C4E7114E002373606B
:106BB000FEF750FB0546336823F4102333600C4B7B
:106BC0001B6813F4003F06D0FEF744FB401B64280B
:106BD000F5D90324AEE7064B1A6822F480221A6026
:106BE0005A6A42F080725A6200229A60A2E700BF9D
:106BF000001002400000002000127A00080000206F
:106C0000002800F0F18170B582B00446036813F0EB
:106C1000010F2CD0994B5B6803F00C03042B1DD0A3
:106C2000964B5B6803F00C03082B12D06368B3F536
:106C3000803F41D0002B55D103F1804303F504334D
:106C40001A6822F480321A601A6822F480221A60CC
:106C500037E08A4B5B6813F4803FE7D0874B1B68B3
:106C600013F4003F03D06368002B00F0BF8123685A
:106C700013F0020F75D0814B5B6813F00C0F5FD0DF
:106C80007E4B5B6803F00C03082B54D02369002B68
:106C900000F08A807A4B01221A60FEF7DBFA054683
:106CA000764B1B6813F0020F75D1FEF7D3FA401B29
:106CB0000228F5D903209EE1704A136843F480331B
:106CC0001360636843B3FEF7C5FA05466B4B1B6858
:106CD00013F4003FCBD1FEF7BDFA401B6428F5D971
:106CE000032088E1B3F5A02F09D0644B1A6822F481
:106CF00080321A601A6822F480221A60E1E703F1F8
:106D00008043A3F53C331A6842F480221A601A6863
:106D100042F480321A60D4E7FEF79CFA0546574BDE
:106D20001B6813F4003FA2D0FEF794FA401B6428BE
:106D3000F5D903205FE1514B5B6813F4803FA5D187
:106D40004E4B1B6813F0020F03D02369012B40F058
:106D50004F814A4A136823F0F803616943EAC1038B
:106D60001360236813F0080F33D0A369002B5CD0A5
:106D7000434B0122C3F88024FEF76CFA05463F4BD3
:106D80005B6A13F0020F21D1FEF764FA401B022860
:106D9000F5D903202FE1394A136823F0F80361691C
:106DA00043EAC1031360DCE7354B00221A60FEF7AB
:106DB00051FA0546314B1B6813F0020FD1D0FEF794
:106DC00049FA401B0228F5D9032014E10120FFF7FE
:106DD00087FE236813F0040F00F09680274BDB69D1
:106DE00013F0805F34D1254BDA6942F08052DA61CA
:106DF000DB6903F080530193019B0125214B1B6844
:106E000013F4807F26D0E368012B3DD0002B53D1B3
:106E100003F1804303F504331A6A22F001021A6277
:106E20001A6A22F004021A6233E0154B0022C3F8FA
:106E30008024FEF70FFA0546104B5B6A13F0020F31
:106E4000C7D0FEF707FA401B0228F5D90320D2E08D
:106E50000025D3E70B4A136843F480731360FEF7F1
:106E6000F9F90646074B1B6813F4807FCBD1FEF778
:106E7000F1F9801B6428F5D90320BCE00010024022
:106E800000004242007000405F4A136A43F0010371
:106E90001362E36833B3FEF7DDF906465A4B1B6A0B
:106EA00013F0020F2FD1FEF7D5F9801B41F2883382
:106EB0009842F3D903209EE0052B09D0524B1A6A61
:106EC00022F001021A621A6A22F004021A62E0E752
:106ED0004D4B1A6A42F004021A621A6A42F0010229
:106EE0001A62D6E7FEF7B6F90646474B1B6A13F05F
:106EF000020F08D0FEF7AEF9801B41F288339842AA
:106F0000F3D9032077E0E5B9E369002B72D03E4A5C
:106F1000526802F00C02082A56D0022B17D03B4BC5
:106F200000221A66FEF796F90446374B1B6813F0E9
:106F3000007F47D0FEF78EF9001B0228F5D9032009
:106F400059E0314AD36923F08053D361DCE72F4BFA
:106F500000221A66FEF77EF905462B4B1B6813F0DC
:106F6000007F06D0FEF776F9401B0228F5D90320F2
:106F700041E0236AB3F5803F1AD023494B6823F4DC
:106F80007413226A606A024313434B601F4B012251
:106F90001A66FEF75FF904461B4B1B6813F0007F6F
:106FA0000ED1FEF757F9001B0228F5D9032022E085
:106FB000154A536823F40033A1680B435360DCE7A0
:106FC000002018E0002016E0012B16D00E4B5B6865
:106FD00003F48031226A914211D103F47013626A82
:106FE00093420ED1002006E001207047012002E00C
:106FF000012000E0002002B070BD0120FBE701206D
:10700000F9E70120F7E700BF00100240000042420C
:1070100086B0174B0FCB0DF1180C0CE90F0040F2A6
:107020000123ADF80430134B5B6803F00C02082A0F
:1070300002D0114806B07047C3F3834218326A4445
:1070400012F8100C13F4803F0DD00A4B5B68C3F3A9
:10705000404318336B4413F8143C074A02FB00F01A
:10706000B0FBF3F0E6E7054B03FB00F0E2E700BFFF
:1070700000B200080010024000127A0000093D0032
:10708000002800F0A08070B50D460446524B1B68E6
:1070900003F007038B420BD24F4A136823F0070318
:1070A0000B431360136803F007038B4240F08D809D
:1070B000236813F0020F17D013F0040F04D0474ACF
:1070C000536843F4E0635360236813F0080F04D05F
:1070D000424A536843F460535360404A536823F074
:1070E000F003A1680B435360236813F0010F31D004
:1070F0006368012B20D0022B25D0384A126812F089
:10710000020F64D035494A6822F0030213434B60F2
:10711000FEF7A0F80646314B5B6803F00C0362688B
:10712000B3EB820F16D0FEF795F8801B41F288333F
:107130009842F0D9032045E0284A126812F4003F33
:10714000E0D101203EE0254A126812F0007FD9D13B
:10715000012037E0204B1B6803F00703AB420AD93C
:107160001D4A136823F007032B431360136803F0D1
:107170000703AB422DD1236813F0040F06D0174A42
:10718000536823F4E063E1680B435360236813F012
:10719000080F07D0114A536823F46053216943EA6A
:1071A000C1035360FFF734FF0C4B5B68C3F3031359
:1071B0000B4AD35CD8400B4B18600B4B1868FEF79A
:1071C00005F8002070BD012070470120FAE701207A
:1071D000F8E70120F6E700BF00200240001002405F
:1071E000E8B100080000002008000020014B1868EA
:1071F000704700BF0000002008B5FFF7F7FF044B01
:107200005B68C3F30223034AD35CD84008BD00BFC8
:1072100000100240F8B1000808B5FFF7E7FF044B83
:107220005B68C3F3C223034AD35CD84008BD00BFE8
:1072300000100240F8B1000870B582B0044603683F
:1072400013F0010F36D03F4BDB6913F0805F49D15B
:107250003C4BDA6942F08052DA61DB6903F080531B
:107260000193019B0125384B1B6813F4807F3BD0B1
:10727000344B1B6A13F4407313D0626802F44072FB
:107280009A420ED02F4A136A23F440702F490126E8
:10729000C1F840640026C1F84064106213F0010F89
:1072A00036D1284A136A23F4407361680B43136292
:1072B000002D3ED1236813F0020F06D0214A5368F7
:1072C00023F44043A1680B435360236813F0100F6D
:1072D00034D01C4A536823F48003E1680B435360A5
:1072E00000202CE00025BEE7174A136843F48073A2
:1072F0001360FDF7AFFF0646134B1B6813F4807F46
:10730000B6D1FDF7A7FF801B6428F5D9032016E04E
:10731000FDF7A0FF06460B4B1B6A13F0020FC0D10E
:10732000FDF798FF801B41F288339842F3D9032080
:1073300005E0D36923F08053D361BBE7002002B09E
:1073400070BD00BF001002400070004000004242CB
:107350002DE9F04782B00546884617461E46FDF7E0
:1073600079FF0A9B1B1A03EB0609FDF773FF8246A0
:107370002B4B1B68C3F3CB3309FB03F301932B683F
:107380009C6838EA04030CBF4FF0010C4FF0000C6E
:10739000BC4540D0B6F1FF3FF1D0FDF75BFFA0EB5D
:1073A0000A0048450AD2B9F1000F07D0019A02B18C
:1073B0004A46019B013B01939146E0E72A685368E6
:1073C00023F0E00353606B68B3F5827F0BD0AB6AA8
:1073D000B3F5005F14D0012385F85130002385F800
:1073E0005030032018E0AB68B3F5004F02D0B3F57E
:1073F000806FECD12A68136823F040031360E6E73E
:107400002A68136823F4005313602A68136843F44E
:1074100000531360DFE7002002B0BDE8F08700BF33
:107420000000002010B582B004460B4600920022F6
:107430008021FFF78DFF08B902B010BD636D43F0E6
:10744000200363650320F7E7002856D010B50446F3
:10745000436A33B94368B3F5827F05D00023C36123
:1074600002E00023036143610023A36294F85130DA
:10747000002B3CD0022384F851302268136823F09B
:1074800040031360636803F48273A26802F4044249
:107490001343E26802F400621343226902F002021D
:1074A0001343626902F001021343A26902F40072FD
:1074B0001343E26902F038021343226A02F08002A9
:1074C0001343A26A02F40052216813430B60638BDA
:1074D000226803F0040353602268D36923F4006335
:1074E000D36100206065012384F8513010BD84F819
:1074F00050302046FDF776FCBCE7012070470000C5
:1075000038B590F85030012B61D00446012380F843
:10751000503090F85150EDB29D4252D1002951D0D7
:10752000002A4FD0032380F85130002343650163C4
:107530008286C2868363436403648387C3878368C8
:10754000B3F5004F2AD0A36C224ADA62A36C224A18
:107550009A62A36C214A1A63A36C00225A632268C0
:10756000E38E9BB20C32216BA06CFDF745FF014608
:10757000F8B923681A6812F0400F03D11A6842F074
:1075800040021A602268536843F020035360226867
:10759000536843F0020353600D4613E0026813681A
:1075A00023F0400313600268136843F480431360C0
:1075B000C9E7636D43F010036365012384F851301C
:1075C00000E00225002384F85030284638BD02250B
:1075D000FBE700BFE375000811760008EF750008AF
:1075E000704708B5406AFFF7FBFF08BD704708B554
:1075F000406A0268536823F003035360436D43F00D
:1076000010034365012380F85130FFF7EFFF08BDF9
:1076100030B583B00546446AFDF71CFE2B681B6835
:1076200013F0200F23D1024621684B6823F020037A
:107630004B6021684B6823F002034B6064212046B5
:10764000FFF7F0FE18B1636D43F020036365A36894
:1076500033B901932368DA6801929B680193019B17
:107660000023E386012384F85130636D23B920465B
:1076700003F084FC03B030BD2046FFF7B7FFF9E705
:1076800030B585B00446026851689368C3F3801032
:1076900013F0400F05D113F0010F02D011F0400F8D
:1076A0005AD113F0020F02D011F0800F58D1C3F35A
:1076B000401513F0200F01D1002854D011F0200FF5
:1076C00051D078B194F85130DBB2032B4DD0636DBB
:1076D00043F00403636500230193D3680193936827
:1076E0000193019B65B1636D43F001036365002362
:1076F000039393680393136823F040031360039B81
:10770000636D002B2FD02268536823F0E003536091
:10771000012384F8513011F0030F2ED022685368F2
:1077200023F003035360E36C4BB1164A5A63E06CD9
:10773000FDF7BEFE18B1636D43F040036365A36CB3
:107740008BB1104A5A63A06CFDF7B2FE58B1636D5D
:1077500043F04003636506E0236C2046984702E04F
:10776000636C2046984705B030BD00230293D36870
:10777000029393680293029BF5E72046FFF736FFDA
:10778000F1E700BF8977000808B5406A0023C38786
:10779000C386FFF72BFF08BD10B4036A046A24F008
:1077A00001040462846924F0F00C4CEA021223F014
:1077B0000A030B438261036210BC704710B4046A71
:1077C00024F0100404628469036A24F4704C4CEAC7
:1077D000023223F0A00343EA01138261036210BC6A
:1077E0007047836823F070030B4343F00703836003
:1077F0007047000090F83D30DBB2012B27D1022307
:1078000080F83D300268D36843F00103D360036819
:10781000114A934210D0B3F1804F0DD0A2F59432AB
:10782000934209D002F58062934205D01A6842F073
:1078300001021A60002070479A6802F00702062AC7
:1078400007D01A6842F001021A6000207047012038
:1078500070470020704700BF002C01407047704700
:1078600070477047704710B5044603681A6912F0F4
:10787000020F11D0DA6812F0020F0DD06FF0020281
:107880001A610123037703689B6913F0030F70D01B
:10789000FFF7E6FF0023237723681A6912F0040F2D
:1078A00012D0DA6812F0040F0ED06FF004021A61E1
:1078B0000223237723689B6913F4407F5FD020461F
:1078C000FFF7CEFF0023237723681A6912F0080F11
:1078D00012D0DA6812F0080F0ED06FF008021A61A9
:1078E000042323772368DB6913F0030F4ED020466F
:1078F000FFF7B6FF0023237723681A6912F0100FF1
:1079000012D0DA6812F0100F0ED06FF010021A6168
:10791000082323772368DB6913F4407F3DD020469A
:10792000FFF79EFF0023237723681A6912F0010FE7
:1079300003D0DA6812F0010F36D123681A6912F009
:10794000800F03D0DA6812F0800F34D123681A69EF
:1079500012F0400F03D0DA6812F0400F32D12368E2
:107960001A6912F0200F03D0DA6812F0200F30D11C
:1079700010BDFFF774FF2046FFF773FF8AE720462C
:10798000FFF76DFF2046FFF76CFF9BE72046FFF7F0
:1079900066FF2046FFF765FFACE72046FFF75FFF75
:1079A0002046FFF75EFFBDE76FF001021A61204637
:1079B000FFF754FFC1E76FF080021A61204600F024
:1079C00026F9C3E76FF040021A612046FFF74AFF2D
:1079D000C5E76FF020021A61204600F017F9C7E7EB
:1079E00003681B4A90420AD0B0F1804F07D0A2F53D
:1079F0009432904203D002F58062904203D123F08A
:107A000070034A681343124A90420AD0B0F1804F83
:107A100007D0A2F59432904203D002F580629042E2
:107A200003D123F44073CA68134323F080034A69E7
:107A3000134303608B68C3620B688362044B9842F4
:107A400002D00123436170470B690363F9E700BF6C
:107A5000002C014040B310B5044690F83D30F3B11E
:107A6000022384F83D30214651F8040BFFF7B8FF9C
:107A7000012384F8463084F83E3084F83F3084F89F
:107A8000403084F8413084F8423084F8433084F840
:107A9000443084F8453084F83D30002010BD80F833
:107AA0003C30FDF7EFFADBE70120704710B4846843
:107AB00024F47F4C42EA03220A4342EA0C02826029
:107AC00010BC704790F83C30012B66D010B50446CE
:107AD000012380F83C30022380F83D30026893682F
:107AE00023F47F4323F0770393600B68602B40D02F
:107AF00022D8402B47D00BD9502B0ED1CA684968E9
:107B00000068FFF749FE50212068FFF76AFE04E095
:107B1000202B0CD008D9302B09D0012384F83D301C
:107B2000002084F83C0010BD0BB1102BF5D1194694
:107B30002068FFF756FEF0E7702B0ED0B3F5005F1C
:107B4000EBD1CB684A6889680068FFF7AFFF22680D
:107B5000936843F480439360DFE7CB684A688968A1
:107B60000068FFF7A3FF2268936843F077039360F0
:107B7000D3E7CA6849680068FFF720FE60212068E3
:107B8000FFF72FFEC9E7CA6849680068FFF704FEDF
:107B900040212068FFF725FEBFE702207047000064
:107BA00090F83C30012B2CD010B4012380F83C30ED
:107BB000022380F83D3003685A689C6822F0700CFC
:107BC0000A6842EA0C025A6003680F4A93420AD0DC
:107BD000B3F1804F07D0A2F59432934203D002F55F
:107BE0008062934204D124F080044A6814439C606C
:107BF000012380F83D30002380F83C30184610BC4B
:107C000070470220704700BF002C0140704770474A
:107C10000268D36823F49073D3600268536923F039
:107C200001035361036B012B05D0202380F83E3004
:107C30000023036370470268D36823F01003D36006
:107C4000F3E790F83D30DBB2212B01D002207047E2
:107C50008368B3F5805F17D0036A5A1C02621A78F2
:107C600003685A60C38C9BB2013B9BB2C3844BB97F
:107C70000268D36823F08003D3600268D36843F0BE
:107C80004003D360002070470369002BE4D1036AEE
:107C90001B880268C3F308035360036A023303625C
:107CA000E0E7000010B504460268136923F440536E
:107CB000C1680B43136183680269134342691A4325
:107CC0000168CB6823F4B05323F00C031343CB605B
:107CD0000268536923F4407381690B43536102685E
:107CE000134B9A4220D0FFF787FA024602EB82023A
:107CF00002EB820263689B00B2FBF3F20D48A0FB2B
:107D000002314909642303FB11231B013233A0FB19
:107D100003235B0903F0F00202EB011203F00F03EF
:107D2000216813448B6010BDFFF776FA0246DDE749
:107D3000003801401F85EB5158B310B5044690F848
:107D40003D300BB3242384F83D302268D36823F4FC
:107D50000053D3602046FFF7A5FF2268136923F480
:107D6000904313612268536923F02A035361226808
:107D7000D36843F40053D36000202064202384F8A8
:107D80003D3084F83E3010BD80F83C30FDF7BCF942
:107D9000D8E701207047704708B50168CA6822F02B
:107DA0004002CA60202280F83D20FFF7F4FF002047
:107DB00008BD7047704708B5406A0023C385C38477
:107DC000FFF7F8FF08BD90F83E30DBB2222B60D100
:107DD0008368B3F5805F46D0826AB3F5805F04D0D4
:107DE000002B4DD10369002B4AD103685B681370E7
:107DF000836A01338362C38D9BB2013B9BB2C3850F
:107E0000002B48D100B583B00268D36823F020036B
:107E1000D3600268D36823F48073D3600268536927
:107E200023F001035361202380F83E30036B012BC4
:107E30002CD1002303630268D36823F01003D360BE
:107E400003681A6812F0100F06D0002201921A6817
:107E500001925B680193019B818DFDF7A5F90020DC
:107E600003B05DF804FB0269002AB5D1826A036899
:107E70005B68C3F308031380836A02338362BAE743
:107E800003685B6803F07F031370B1E7FFF791FFAE
:107E9000E5E70220704700207047000030B583B04E
:107EA000044602681368D068516913F00F0505D1C4
:107EB00013F0200F02D010F0200F19D12DB111F0C6
:107EC000010119D110F4907F16D1216B012975D0D1
:107ED00013F0800F03D010F0800F40F0D78013F024
:107EE000400F03D010F0400F40F0D48003B030BDFD
:107EF0002046FFF768FFF9E713F0010F06D010F4F2
:107F0000807F03D0226C42F00102226413F0040F40
:107F100004D019B1226C42F00202226413F0020F65
:107F200004D019B1226C42F00402226413F0080F4D
:107F300007D010F0200F00D119B1226C42F00802D6
:107F40002264226C002AD1D013F0200F02D010F04E
:107F5000200F21D123685B6903F04003226C12F0EB
:107F6000080F00D123B32046FFF752FE23685A6959
:107F700012F0400F18D05A6922F040025A61A36BE8
:107F800073B1464A5A63A06BFDF792FA0028ADD050
:107F9000A06B436B9847A9E72046FFF714FFD9E78A
:107FA0002046FFF707FFA1E72046FFF703FF9DE705
:107FB0002046FFF7FFFE0023236497E713F0100F1E
:107FC00086D010F0100F83D0002301931368019323
:107FD00053680193019B536913F0400F32D0A16B9A
:107FE0000B685B689BB2002B80D0A08D98427FF617
:107FF0007DAFE3858B69202B08D1A18DE38D9BB2EA
:10800000C91A89B22046FDF7CFF86FE7D36823F489
:108010008073D3602268536923F00103536122689F
:10802000536923F040035361202384F83E3000233A
:1080300023632268D36823F01003D360A06BFDF79D
:1080400015FADAE7A18DE38D9BB2C91A89B2E38DE7
:108050009BB2002B3FF44AAF00293FF447AFD368EF
:1080600023F49073D3602268536923F001035361B2
:10807000202384F83E30002323632268D36823F052
:108080001003D3602046FDF78FF82FE72046FFF757
:10809000D8FD2BE72046FFF77FFE27E7B77D0008D6
:1080A000034681628285C28500201864222283F8FB
:1080B0003E2083F83C001968CA6842F48072CA60A6
:1080C00019684A6942F001024A611A68D36843F0AC
:1080D0002003D360704790F83E30DBB2202B21D1D3
:1080E00010B582B00446F9B102B390F83C30012BD0
:1080F0001FD0012380F83C300363FFF7D1FFB0B9F4
:10810000236B012B01D0012011E000230193236890
:108110001A6801925A680192019ADA6842F01002D4
:10812000DA6004E002207047012000E0012002B084
:1081300010BD0220FBE784B001A880E80E000020FB
:1081400004B0704703460020A3F844004FF43F42B8
:10815000A3F840207047B0F8403023F47C535B0410
:108160005B0CA0F84030002070470020704784B0BE
:10817000844601A880E80E000123ACF840300020BE
:10818000ACF84000ACF84400ACF8500004B07047C4
:1081900010B5034691F800C030F82C2092B222F4BA
:1081A000EC4222F0700292B2C878032861D8DFE86E
:1081B00000F0555C0258002048F2800E42EA0E02A0
:1081C00023F82C2091F800C033F82C2092B222F42E
:1081D000E04222F070024CEA020242EA0E0223F868
:1081E0002C200A7B002A40F0C4804A78002A51D013
:1081F000B3F8502092B21A440C7802EB0412B1F892
:1082000006C04FEA5C0C4FEA4C0CA2F800C40C7894
:1082100033F8242012F0400F0CD033F8242092B20F
:1082200022F4E04222F0700242F4004242F0C00226
:1082300023F82420CA78012A1DD0097833F8212098
:1082400092B222F4E04222F0400282F0200242F494
:10825000004242F0800223F821206AE042F40072DA
:10826000AAE742F4C0620020A6E742F48062002040
:10827000A2E70120A0E7097833F8212092B222F486
:10828000E04222F0400242F4004242F0800223F831
:1082900021204EE0B3F8502092B21A440C7802EB41
:1082A0000412B1F806C04FEA5C0C4FEA4C0CA2F87D
:1082B00008C4B3F8502092B21A440C7802EB0412AE
:1082C0000C69BCBBB2F80CC41FFA8CFC2CF4F84C43
:1082D0001FFA8CFCA2F80CC4B2F80CC46FEA4C4C28
:1082E0006FEA5C4C1FFA8CFCA2F80CC40C7833F8D3
:1082F000242012F4804F0CD033F8242092B222F4C0
:10830000E04222F0700242F4404242F0800223F840
:108310002420097833F8212092B222F4804222F0FE
:10832000700282F4405242F4004242F0800223F88C
:10833000212010BD3E2C0DD84FEA540C14F0010F33
:1083400001D00CF1010C4FEA8C2C1FFA8CFCA2F826
:108350000CC4CBE74FEA541C14F01F0F01D10CF1F1
:10836000FF3C6FEACC646FEA5444A4B2A2F80C4418
:10837000BCE791F800C033F82C2092B222F4E0421E
:1083800022F0700242F4014242F0800223F82C20D5
:10839000B3F8502092B21A4491F800C002EB0C12CC
:1083A000B1F808C04FEA5C0C4FEA4C0CA2F800C4CC
:1083B000B3F8502092B21A4491F800C002EB0C12AC
:1083C000B1F80AC04FEA5C0C4FEA4C0CA2F808C4A2
:1083D0004A78002A41D10C7833F8242012F4804FD7
:1083E0000CD033F8242092B222F4E04222F0700242
:1083F00042F4404242F0800223F824200C7833F803
:10840000242012F0400F0CD033F8242092B222F432
:10841000E04222F0700242F4004242F0C00223F82F
:10842000242091F800C033F82C2092B222F480422C
:1084300022F0700282F4405248F28004224323F872
:108440002C20097833F8212092B222F4E04222F065
:108450004002224323F821206BE70C7833F82420D4
:1084600012F4804F0CD033F8242092B222F4E04270
:1084700022F0700242F4404242F0800223F82420AD
:108480000C7833F8242012F0400F0CD033F824205D
:1084900092B222F4E04222F0700242F4004242F032
:1084A000C00223F82420CA78012A1ED00C7833F8A1
:1084B000242092B222F4E04222F0400282F0200214
:1084C00042F4004242F0800223F82420097833F875
:1084D000212092B222F4804222F0700242F4004243
:1084E00042F0800223F8212023E70C7833F824207F
:1084F00092B222F4E04222F0400242F4004242F002
:10850000800223F82420E1E70B7B002B46D14B7837
:1085100013B30A7830F8223013F0400F0CD030F843
:1085200022309BB223F4E04323F0700343F4004372
:1085300043F0C00320F822300A7830F822309BB292
:1085400023F4E04323F0400343F4004343F080036B
:1085500020F82230002070470A7830F8223013F4D7
:10856000804F0CD030F822309BB223F4E04323F04C
:10857000700343F4404343F0800320F822300A782C
:1085800030F822309BB223F4804323F0700343F48D
:10859000004343F0800320F82230DBE74B78002BC8
:1085A0004ED10A7830F8223013F4804F0CD030F8D6
:1085B00022309BB223F4E04323F0700343F44043A2
:1085C00043F0800320F822300A7830F8223013F08C
:1085D000400F0CD030F822309BB223F4E04323F05C
:1085E000700343F4004343F0C00320F822300A78BC
:1085F00030F822309BB223F4E04323F0700343F4BD
:10860000004343F0C00320F822300B7830F82320D9
:1086100092B222F4804222F0700248F2800C42EAC8
:108620000C0220F823200A7830F822309BB223F481
:10863000E04323F0400343EA0C0320F8223089E7AB
:108640000A7830F8223013F4804F0CD030F8223002
:108650009BB223F4E04323F0700343F4404343F020
:10866000800320F822300A7830F8223013F0400FCF
:108670000CD030F822309BB223F4E04323F0700397
:1086800043F4004343F0C00320F822300A7830F866
:1086900022309BB223F4E04323F0700343F44043C1
:1086A00043F0800320F822300B7830F8232092B278
:1086B00022F4E04222F0400248F2800C42EA0C022E
:1086C00020F823200A7830F822309BB223F480432C
:1086D00023F0700343EA0C0320F822303AE74B788A
:1086E0008BB10A7830F822309BB223F4E04323F0B8
:1086F000400383F0100343F4004343F0800320F869
:108700002230002070470A7830F822309BB223F4E0
:10871000804323F0700383F4805343F4004343F019
:10872000800320F82230ECE70B7B002B4BD14B78F9
:1087300033B30A7830F8223013F0400F0CD030F801
:1087400022309BB223F4E04323F0700343F4004350
:1087500043F0C00320F82230CB78012B33D00A78C5
:1087600030F822309BB223F4E04323F0400383F03F
:10877000200343F4004343F0800320F8223022E03A
:108780000A7830F8223013F4804F0CD030F82230C1
:108790009BB223F4E04323F0700343F4404343F0DF
:1087A000800320F822300A7830F822309BB223F47C
:1087B000804323F0700383F4405343F4004343F0B9
:1087C000800320F822300020704711B98023A0F8E0
:1087D0004C30002070470020704700207047B0F8F0
:1087E000440080B270470020704710B45C1C6408DD
:1087F00000EB420202F5806207E00B78487843EA1A
:10880000002322F8043B0231013C002CF5D110BCBE
:10881000704770B505460C464B78012B37D00A7B64
:10882000002A40F026838B690A69934240F2048350
:108830009B1A8B61B5F850309BB22B44217803EB27
:108840000113002A40F0FC82B3F80C2492B222F407
:10885000F84292B2A3F80C24B3F80C246FEA424217
:108860006FEA524292B2A3F80C24227835F82230F3
:108870009BB223F4804323F0700383F4405343F40A
:10888000004343F0800325F82230002070BD8E693C
:108890000A69964200D91646237B002B39D0E3782B
:1088A000022B58D0227835F822309BB223F4E043D3
:1088B00023F0700343F4014343F0800325F8223092
:1088C000236A9B1B2362237835F8232012F0400F84
:1088D00000F026826278002A40F0CA81B5F8502064
:1088E00092B22A4402EB0313002E40F0A881B3F8A1
:1088F0000C2492B222F4F84292B2A3F80C24B3F8FA
:108900000C246FEA42426FEA524292B2A3F80C245E
:10891000B0E1B6B23346E28861692846FFF765FFE9
:10892000B5F850309BB22B44227803EB0213A3F826
:108930000464227835F822309BB223F4E04323F01C
:10894000400383F0300343F4004343F0800325F8F1
:10895000223000209AE7236A9A4280F052812278DE
:1089600035F822309BB223F4E04323F0700343F444
:10897000014343F0800325F82230236A9B1B2362C6
:10898000237835F8232012F0400F00F09D806278A4
:108990008ABBB5F8502092B22A4402EB03138EB979
:1089A000B3F80C2492B222F4F84292B2A3F80C2449
:1089B000B3F80C246FEA42426FEA524292B2A3F833
:1089C0000C241AE03E2E09D8720816F0010F00D0D0
:1089D0000132920292B2A3F80C240EE0720916F052
:1089E0001F0F00D1013A6FEAC2626FEA524292B29F
:1089F000A3F80C2401E0012A2BD0B3B2628961698B
:108A00002846FFF7F2FE636933446361236A2269F3
:108A1000934228D99B1B23626378002B40D1B5F881
:108A200050309BB22B44227803EB0213FEB9B3F80B
:108A3000042492B222F4F84292B2A3F80424B3F8C8
:108A400004246FEA42426FEA524292B2A3F804242D
:108A500028E0B5F8502092B22A4402EB0313B2B2D8
:108A6000A3F80C24C9E7002222621E46D4E73E2E5A
:108A700009D8720816F0010F00D00132920292B2AA
:108A8000A3F804240EE0720916F01F0F00D1013A7A
:108A90006FEAC2626FEA524292B2A3F8042401E084
:108AA000012B06D0B3B2228961692846FFF79DFEEB
:108AB0003FE7B5F850309BB22B44227803EB02130A
:108AC000B2B2A3F80424EDE762788ABBB5F850206F
:108AD00092B22A4402EB03138EB9B3F8042492B283
:108AE00022F4F84292B2A3F80424B3F804246FEA03
:108AF00042426FEA524292B2A3F804241AE03E2E98
:108B000009D8720816F0010F00D00132920292B219
:108B1000A3F804240EE0720916F01F0F00D1013AE9
:108B20006FEAC2626FEA524292B2A3F8042401E0F3
:108B3000012A2BD0B3B2228961692846FFF755FE7E
:108B4000636933446361236A2269934228D99B1B7A
:108B500023626378002B40D1B5F850309BB22B4490
:108B6000227803EB0213FEB9B3F80C2492B222F47C
:108B7000F84292B2A3F80C24B3F80C246FEA4242F4
:108B80006FEA524292B2A3F80C2428E0B5F85020C4
:108B900092B22A4402EB0313B2B2A3F80424C9E749
:108BA000002222621E46D4E73E2E09D8720816F033
:108BB000010F00D00132920292B2A3F80C240EE011
:108BC000720916F01F0F00D1013A6FEAC2626FEA14
:108BD000524292B2A3F80C2401E0012B06D0B3B2AA
:108BE000628961692846FFF700FEA2E6B5F85030B9
:108BF0009BB22B44227803EB0213B2B2A3F80C24ED
:108C0000EDE7217835F8212092B222F4E24222F0F9
:108C1000700242F4004242F0800225F82120B5F8AB
:108C2000502092B22A44217802EB01129BB2A2F8A2
:108C30000434228961692846FFF7D7FD79E63E2E84
:108C400009D8720816F0010F00D00132920292B2D8
:108C5000A3F80C240EE0720916F01F0F00D1013AA0
:108C60006FEAC2626FEA524292B2A3F80C2401E0AA
:108C7000012A26D0B3B2628961692846FFF7B5FDA3
:108C8000636933446361236A2269934223D99B1B3E
:108C90002362002E3FF44DAE63786BBBB5F85030C5
:108CA0009BB22B44227803EB02133E2E17D8720896
:108CB00016F0010F00D00132920292B2A3F8042400
:108CC0001CE0B5F8502092B22A4402EB0313B2B272
:108CD000A3F80C24CEE7002222621E46D9E77209CF
:108CE00016F01F0F00D1013A6FEAC2626FEA5242DA
:108CF00092B2A3F8042401E0012B06D0B3B222897A
:108D000061692846FFF771FD13E6B5F850309BB254
:108D10002B44227803EB0213B2B2A3F80424EDE74C
:108D200062788ABBB5F8502092B22A4402EB031352
:108D30008EB9B3F8042492B222F4F84292B2A3F8A6
:108D40000424B3F804246FEA42426FEA524292B21A
:108D5000A3F804241AE03E2E09D8720816F0010F79
:108D600000D00132920292B2A3F804240EE07209FC
:108D700016F01F0F00D1013A6FEAC2626FEA524249
:108D800092B2A3F8042401E0012A26D0B3B22289CA
:108D900061692846FFF729FD636933446361236AEB
:108DA0002269934223D99B1B2362002E3FF4C1AD5D
:108DB00063786BBBB5F850309BB22B44227803EB41
:108DC00002133E2E17D8720816F0010F00D00132A0
:108DD000920292B2A3F80C241CE0B5F8502092B293
:108DE0002A4402EB0313B2B2A3F80424CEE7002214
:108DF00022621E46D9E7720916F01F0F00D1013A10
:108E00006FEAC2626FEA524292B2A3F80C2401E008
:108E1000012B06D0B3B2628961692846FFF7E5FCF1
:108E200087E5B5F850309BB22B44227803EB021350
:108E3000B2B2A3F80C24EDE700228A611A46F9E4E5
:108E40003E2A09D8510812F0010F00D001318902E1
:108E500089B2A3F80C1408E5510912F01F0F00D1D4
:108E600001396FEAC1616FEA514189B2A3F80C146C
:108E7000FBE4CA78022A45D0012A40F020818969A2
:108E80002269914240F2D480891AA161D3B9B5F820
:108E900050309BB22B44217803EB0113002A40F0A1
:108EA000CB80B3F8041489B221F4F84189B2A3F855
:108EB0000414B3F804146FEA41416FEA514189B2D6
:108EC000A3F804146378002B40F0EA80B5F8503022
:108ED0009BB22B44217803EB0113002A40F0C5809C
:108EE000B3F80C2492B222F4F84292B2A3F80C2404
:108EF000B3F80C246FEA42426FEA524292B2A3F8EE
:108F00000C24B2E4CBB9B0F850309BB203440A78D9
:108F100003EB02130A6972BBB3F8042492B222F481
:108F2000F84292B2A3F80424B3F804246FEA424250
:108F30006FEA524292B2A3F804246378002B4CD11A
:108F4000B5F850309BB22B44227803EB0213226910
:108F500052BBB3F80C2492B222F4F84292B2A3F8B6
:108F60000C24B3F80C246FEA42426FEA524292B2E8
:108F7000A3F80C2433E03E2A09D8510812F0010F5F
:108F800000D001318A0292B2A3F80424D5E7510936
:108F900012F01F0F00D101396FEAC1626FEA52422D
:108FA00092B2A3F80424C8E73E2A09D8510812F067
:108FB000010F00D001318A0292B2A3F80C240EE016
:108FC000510912F01F0F00D101396FEAC1626FEA37
:108FD000524292B2A3F80C2401E0012B1DD0E369A8
:108FE000002B3FF442AC227835F8221044F24003C3
:108FF00003EA01008B4302D000287FF436AC35F839
:1090000022309BB223F4E04323F0700343F4004387
:1090100043F0C00325F8223027E4B5F850309BB266
:109020002B44227803EB0213228AA3F80C24D6E700
:109030000022A2610A4629E73E2A09D8510812F007
:10904000010F00D00131890289B2A3F8041439E775
:10905000510912F01F0F00D101396FEAC1616FEAA7
:10906000514189B2A3F804142CE73E2A0AD85108CA
:1090700012F0010F00D001318A0292B2A3F80C2441
:10908000FFF7F3BB510912F01F0F00D101396FEA4E
:10909000C1626FEA524292B2A3F80C24FFF7E5BB1B
:1090A000012B7FF4E2ABB5F850309BB22B44217812
:1090B00003EB011392B2A3F80C24FFF7D6BB0120F7
:1090C000FFF7E4BB10B45C0800EB420000F58060E1
:1090D00007E030F8042B0A70C2F307224A7002310D
:1090E000013C002CF5D113F0010F01D003880B7067
:1090F00010BC7047014B185C704700BF100800207F
:10910000014B1954704700BF1008002008B54FF4F8
:10911000806202490248FBF7B7FC08BD00FC010869
:109120001008002030B587B000230193029301237B
:109130000393124A04920593FCF7EEFA08B107B0C4
:1091400030BD0F4B3422DA6001A902A8FCF7B0FB56
:1091500080B90A4C00250B4B9C420BD80A4B2B4480
:10916000D3E9002321460320FCF72EFB10B9083475
:109170000835F0E7FCF7EAFAE1E700BF00FC010878
:1091800000200240FFFF01081008002000F55E7279
:109190004FF0FF33C0F87833C0F87C33C0F8803329
:1091A0001A4B10211961D0F874339A63D0F87433D4
:1091B0000C22DA87D0F874331A68136843F040033E
:1091C0001360D0F87423D38F9BB2A3B1136899684E
:1091D00011F0010FF5D0926B1B7B1370D0F8742344
:1091E000936B01339363D0F87423D38F9BB2013B0D
:1091F0009BB2D387E5E71268136823F0400313603E
:10920000024B10225A61D0F884037047000C0140D1
:1092100010B50446D0F87803D4F87C23D4F8803312
:10922000C4F88803C4F88C23C4F89033002204E007
:1092300000BF0133072BFBDD0132914201D900232E
:10924000F8E72046FFF7A2FF00220B2A0CDCA1184A
:1092500091F888C391F878338CEA030C43EA0C0345
:1092600081F878330132F0E710BDF0B5844600256F
:10927000C0F8C653C0F8CA53C0F8CD5331E0073325
:109280000BE0013212B2072A22DC2C46174602EB11
:10929000C5063CF91630002BF1DBD8103CF916302E
:1092A0005E4203F0070306F0070658BF7342DCF87E
:1092B0008463365C802040FA03F31E42E1D003460B
:1092C0003B41644494F8C6731F4384F8C673D8E7DF
:1092D0000CEB050292F8C633DB4382F8C633013546
:1092E0002DB20A2D01DC0022CDE70CF565700025BA
:1092F000CCF89453CCF89853CCF89C53CCF8A053AA
:1093000005743AE0073321E0083223460CEB0504EC
:1093100094F8C673802444FA0EF4274208D001332F
:1093200001249440634493F89423224383F89423C4
:109330000EF1010EBEF1070F1EDC06EB0E025823E4
:1093400003FB01233CF91330002BDBDBDC10C3F300
:10935000CF0301331BB2582707FB01223CF912202F
:10936000574202F0070207F0070758BF7A42002A67
:10937000CADB642BCADDDBE70135EE00512E02DCCF
:109380004FF0000ED6E7F0BD90F8CF03C0F34000D9
:1093900070472DE9F04383B006460D4601921F4603
:1093A0009DF8063013B901238DF8063000240CE037
:1093B000E02222E0E02237E0E02305EB450206EB65
:1093C000C202224482F8E1330134072C44DC9DF8C8
:1093D0000500FBF76BFA3946FAF7BAFEFBF734FBE8
:1093E000C0B296F8899D40FA09F04FF0800848FA1B
:1093F00004F810EA080FDBD0FE2205EB450306EB6C
:10940000C303234483F8D1239DF80400FBF74EFAED
:109410003946FAF79DFEFBF717FBC0B240FA09F098
:1094200018EA000FC6D0FE2205EB450306EBC30386
:10943000234483F8D9239DF80600FBF737FA394611
:10944000FAF786FEFBF700FBC2B242FA09F218EA0D
:10945000020FB1D0FE23B0E703B0BDE8F0830000F7
:1094600010B5044694F87033002BFBD1012384F827
:10947000703340F6781204F2D1310848FEF740F814
:1094800094F87033002BFBD1012384F87033402211
:1094900004F649510148FEF733F810BDD406002008
:1094A000012904D0022908D000F565707047012316
:1094B00080F8943300F565707047022380F8A53377
:1094C00000F2A5307047002913DB0B4600291EDB94
:1094D000DB1001334A4201F0070102F0070258BFD6
:1094E00051420133184490F89403084100F0010000
:1094F00070470B4609DBDB1008314A4201F00701D7
:1095000002F0070258BF5142EBE7CB1DF3E7CB1D3A
:10951000DEE7002915DB0B46002920DBDB100133D9
:109520004A4201F0070102F0070258BF51420133DD
:1095300001228A40034493F89413114383F894134F
:1095400070470B4609DBDB1008314A4201F0070186
:1095500002F0070258BF5142E9E7CB1DF3E7CB1DEC
:10956000DCE7000029230380004870474400002006
:1095700029230380004870477000002029230380BE
:1095800000487047B4000020D0F8B832002083F8BB
:109590005000704710B5D0F8B842E36C012B01D0F1
:1095A000002010BDD0F8BC32DB6861782078984785
:1095B0000023E364F4E700000A23038000487047B7
:1095C000A800002038B50446D0F8B852284601F06B
:1095D000DDFC40232A460121204600F09DFF0020AB
:1095E00038BD000070B582B0D0F8B8520023ADF895
:1095F00006300C7814F060042FD0202C7DD14B78ED
:10960000023B092B25D8DFE803F015092424242484
:10961000241C10058B782B64002471E0012205F1D5
:10962000400100F069FD00246AE04B881B0A6B646E
:10963000002465E0012205F1440100F05DFD0024F5
:109640005EE00123EB64CA88294600F06AFD00242D
:1096500056E000F045FA022452E04E780B2E48D82E
:10966000DFE806F0064747474747154747472E3C80
:1096700090F89C32032B03D000F032FA02243FE032
:1096800002220DF1060100F037FD344638E04B8828
:109690001B0A222B06D0212B0CD000210A4600F0F9
:1096A0002BFD2DE0CA88592A28BF5922D0F8BC3298
:1096B0001968F4E7CA88092A28BF09221249EEE787
:1096C00090F89C32032B03D000F00AFA022417E032
:1096D000012205F1480100F00FFD11E090F89C32E5
:1096E000032B02D18B78AB640AE000F0F9F9022475
:1096F00006E000F0F5F9022402E000F0F1F902249E
:10970000204602B070BD00BF9C00002038B5044662
:10971000812100F0C2FE0025E5620121204600F013
:10972000BCFEC4F86C51D4F8B8324BB1D4F8BC329A
:109730009B689847D4F8B80200F0FAFEC4F8B85213
:10974000002038BD70B5044640230322812100F07B
:1097500099FE0125E562402303222946204600F0B8
:1097600091FEC4F86C51542000F0DEFEC4F8B8023B
:1097700078B10546002680F85060D4F8BC325B68AA
:10978000984740232A460121204600F0C5FE304676
:1097900070BD0120FCE738B5D0F8B85290F89C3283
:1097A000032B02D00024204638BD95F850400CB160
:1097B0000124F8E7012385F8503013460A46812139
:1097C00000F0A2FEEFE719B1C0F8BC12002070470C
:1097D0000220704798B108B50346D0F8B40210B122
:1097E0000020C3F8B40209B1C3F8B012012183F814
:1097F0009C121A70184600F003FE002008BD0220DB
:10980000704719B1C0F8B4120020704702207047A9
:1098100008B500F02FFE002008BD08B5D0F8B4321E
:109820002BB11B68984700B908BD0220FCE7022055
:10983000FAE708B5D0F8B4325B689847002008BD55
:1098400038B5044600F52A75284600F035F901239D
:10985000C4F89432B4F8AE32C4F8983294F8A8122E
:1098600001F01F03012B0ED0022B11D02BB101F000
:109870008001204600F019FE03E02946204600F052
:10988000C9FA002038BD2946204600F0F7FAF8E76B
:109890002946204600F022FBF3E738B504460D4682
:1098A00091BB1346D0F89422032A03D0052A24D072
:1098B000084633E0D0F86011D0F8642191420DD908
:1098C000891AC0F860118A4206D98AB21946204620
:1098D00000F036FC284621E092B2F7E7D0F8B43227
:1098E0001B691BB190F89C22032A04D0204600F08B
:1098F0002FFC284612E09847F8E70021C0F89412A0
:1099000000F0D3FD284609E0D0F8B4329B6933B1AA
:1099100090F89C22032A04D19847002038BD0220E9
:10992000FCE70220FAE738B504460D46002953D17A
:109930001346D0F89422022A0CD0042A00D01AB977
:109940008021204600F0B1FD94F8A032012B3ED0DA
:10995000284638BD016A426A91421BD8C169B1FBF1
:10996000F2F302FB13132BB98A4203D8D0F89832D2
:1099700099421CD3D4F8B432DB681BB194F89C2212
:10998000032A21D08021204600F08FFD204600F0E0
:10999000EAFBD9E78A1A026292B2194600F0B9FBD3
:1099A00000231A461946204600F0B6FDCCE70022F7
:1099B000114600F0AEFB0021C4F898120B460A468F
:1099C000204600F0A9FDBFE720469847DAE70023CC
:1099D00084F8A0322846BCE7D0F8B4325B6933B1D2
:1099E00090F89C22032A04D198470020B1E7022076
:1099F000AFE70220ADE770B50446402300221146D0
:109A000000F040FD0125C4F858514026C4F86461B7
:109A1000334600228021204600F034FDA5616662B5
:109A200084F89C520023C4F894326360C4F8A432D2
:109A3000D4F8B8322BB1D4F8B4325B680021204698
:109A40009847002070BD01740020704790F89C3248
:109A500080F89D32042380F89C320020704790F8F3
:109A60009C32042B01D00020704790F89D3280F882
:109A70009C32F8E708B590F89C32032B01D0002007
:109A800008BDD0F8B432DB69002BF8D09847F6E770
:109A90000346002002E00130C0B201331A78002AE8
:109AA000F9D1704708B54B88012B00D008BDC0F82C
:109AB000A43200F04DFBF9E70B7803704B7843704C
:109AC0008B78CA7803EB022343800B794A7903EB46
:109AD000022383808B79CA7903EB0223C38070470A
